{
  "contractName": "HelloWorld",
  "abi": [
    {
      "inputs": [],
      "stateMutability": "nonpayable",
      "type": "constructor"
    },
    {
      "inputs": [],
      "name": "sayHello",
      "outputs": [
        {
          "internalType": "string",
          "name": "",
          "type": "string"
        }
      ],
      "stateMutability": "nonpayable",
      "type": "function"
    },
    {
      "inputs": [
        {
          "internalType": "string",
          "name": "name",
          "type": "string"
        }
      ],
      "name": "echo",
      "outputs": [
        {
          "internalType": "string",
          "name": "",
          "type": "string"
        }
      ],
      "stateMutability": "nonpayable",
      "type": "function"
    }
  ],
  "bytecode": "0x608060405234801561001057600080fd5b50610353806100206000396000f3fe608060405234801561001057600080fd5b50600436106100365760003560e01c8063ef5fb05b1461003b578063f15da72914610059575b600080fd5b610043610089565b6040516100509190610169565b60405180910390f35b610073600480360381019061006e91906102d4565b6100c6565b6040516100809190610169565b60405180910390f35b60606040518060400160405280600b81526020017f48656c6c6f20576f726c64000000000000000000000000000000000000000000815250905090565b6060819050919050565b600081519050919050565b600082825260208201905092915050565b60005b8381101561010a5780820151818401526020810190506100ef565b83811115610119576000848401525b50505050565b6000601f19601f8301169050919050565b600061013b826100d0565b61014581856100db565b93506101558185602086016100ec565b61015e8161011f565b840191505092915050565b600060208201905081810360008301526101838184610130565b905092915050565b6000604051905090565b600080fd5b600080fd5b600080fd5b600080fd5b7f4e487b7100000000000000000000000000000000000000000000000000000000600052604160045260246000fd5b6101e18261011f565b810181811067ffffffffffffffff82111715610200576101ff6101a9565b5b80604052505050565b600061021361018b565b905061021f82826101d8565b919050565b600067ffffffffffffffff82111561023f5761023e6101a9565b5b6102488261011f565b9050602081019050919050565b82818337600083830152505050565b600061027761027284610224565b610209565b905082815260208101848484011115610293576102926101a4565b5b61029e848285610255565b509392505050565b600082601f8301126102bb576102ba61019f565b5b81356102cb848260208601610264565b91505092915050565b6000602082840312156102ea576102e9610195565b5b600082013567ffffffffffffffff8111156103085761030761019a565b5b610314848285016102a6565b9150509291505056fea264697066735822122035975c7662afed9db0f1e0bef5d5e31f85461bff5639b4bfce3588cf0f693b3f64736f6c634300080f0033",
  "immutableReferences": {},
  "source": "// SPDX-License-Identifier: MIT\npragma solidity >=0.4.22 <0.9.0; // soliditysoliditybytecode\n\n//contract class HelloWorld extends Contract\ncontract HelloWorld {\n  constructor() public {\n  }\n    // \n   function sayHello() public returns (string memory) { \n        return (\"Hello World\");\n    }\n\n  function echo(string memory name) public returns (string memory) {\n    return name;\n  }\n}\n\n\n/* \n  \n    - npm install -g truffle ganache-cli\n    - ganache-cli  \n      - truffle-config.js  network port  truffle migrate \n      - https://trufflesuite.com/tutorial/\n      - \n    - npm uninstall -g truffle // \n    - npm install -g truffle\n  truffle CLI \n    - truffle init // \n    - truffle create contract [HelloWorld] // \n    - truffle version //  truffle  solidity \n    - truffle compile //  solidity Ethereum bytecode, may need to add sudo permissions\n        - [why need to add sudo permissions] (https://ethereum.stackexchange.com/questions/115377/error-with-truffle-compile-could-not-find-a-compiler-version-matching)\n    - truffle migrate //  ganache \n    - truffle publish //  solidity  \n    - truffle console // \n        > let contract\n        > HelloWorld.deployed().then(instance => contract = instance)\n        > contract.sayHello.call()\n        'Hello World'\n        > contract.echo.call(\"I love U\")\n        'I love U'\n\n  note: Solidity \n */",
  "sourcePath": "/Users/white/Documents/Labs/smart_contract/hello_my_first_smart_contract/contracts/HelloWorld.sol",
  "compiler": {
    "name": "solc",
    "version": "0.8.15+commit.e14f2714.Emscripten.clang"
  },
  "schemaVersion": "3.4.8",
  "updatedAt": "2022-07-17T07:30:11.776Z",
  "networkType": "ethereum",
  "devdoc": {
    "kind": "dev",
    "methods": {},
    "version": 1
  },
  "userdoc": {
    "kind": "user",
    "methods": {},
    "version": 1
  }
}