{
  "contractName": "HelloWorld",
  "abi": [
    {
      "inputs": [],
      "payable": false,
      "stateMutability": "nonpayable",
      "type": "constructor"
    },
    {
      "constant": false,
      "inputs": [],
      "name": "sayHello",
      "outputs": [
        {
          "name": "",
          "type": "string"
        }
      ],
      "payable": false,
      "stateMutability": "nonpayable",
      "type": "function"
    },
    {
      "constant": false,
      "inputs": [
        {
          "name": "name",
          "type": "string"
        }
      ],
      "name": "echo",
      "outputs": [
        {
          "name": "",
          "type": "string"
        }
      ],
      "payable": false,
      "stateMutability": "nonpayable",
      "type": "function"
    }
  ],
  "bytecode": "0x608060405234801561001057600080fd5b50610236806100206000396000f30060806040526004361061004c576000357c0100000000000000000000000000000000000000000000000000000000900463ffffffff168063ef5fb05b14610051578063f15da729146100e1575b600080fd5b34801561005d57600080fd5b506100666101c3565b6040518080602001828103825283818151815260200191508051906020019080838360005b838110156100a657808201518184015260208101905061008b565b50505050905090810190601f1680156100d35780820380516001836020036101000a031916815260200191505b509250505060405180910390f35b3480156100ed57600080fd5b50610148600480360381019080803590602001908201803590602001908080601f0160208091040260200160405190810160405280939291908181526020018383808284378201915050505050509192919290505050610200565b6040518080602001828103825283818151815260200191508051906020019080838360005b8381101561018857808201518184015260208101905061016d565b50505050905090810190601f1680156101b55780820380516001836020036101000a031916815260200191505b509250505060405180910390f35b60606040805190810160405280600b81526020017f48656c6c6f20576f726c64000000000000000000000000000000000000000000815250905090565b60608190509190505600a165627a7a72305820feaf5f88520d4636a03718b94330a8ee16bca472dc56308113a9ef40fd00bb270029",
  "source": "// SPDX-License-Identifier: MIT\npragma solidity >=0.4.22 <0.9.0; // 目前使用的solidity版本，不同版本的solidity可能會編譯出不同的bytecode\n\n//宣告contract後即內建了開發智能合約所需的功能。也可以把這句理解為 class HelloWorld extends Contract\ncontract HelloWorld {\n  constructor() public {\n  }\n    // 如果有輸入、輸出值，都必須定義型別\n   function sayHello() public returns (string memory) { \n        return (\"Hello World\");\n    }\n\n  function echo(string memory name) public returns (string memory) {\n    return name;\n  }\n}\n\n\n/* \n  開啟專案前的環境準備：\n    - npm install -g truffle ganache-cli\n    - ganache-cli  命令來啟動乙太坊測試環境\n      - truffle-config.js 裡的 network port 號要填對，連接成功後在 truffle migrate 就可以看到對應\n      - ganache-cli --seed [apple] [banana] [cherry] 重新啟動ganache-cli時可以產生一樣的帳戶(accounts)和私鑰(private key)\n      - https://trufflesuite.com/tutorial/\n      - \n    - npm uninstall -g truffle // 要先反安裝\n    - npm install -g truffle\n  truffle CLI 指令：\n    - truffle init // 建立專案\n    - truffle create contract [HelloWorld] // 建立新合約\n    - truffle version // 查詢 truffle 與 solidity 版本\n    - truffle compile // 將 solidity 原始碼編譯成Ethereum bytecode, may need to add sudo permissions\n        - [why need to add sudo permissions] (https://ethereum.stackexchange.com/questions/115377/error-with-truffle-compile-could-not-find-a-compiler-version-matching)\n    - truffle migrate // 將合約部署到 ganache 中\n    - truffle publish // 將 solidity  \n    - truffle console // 測試合約內容\n        > let contract\n        > HelloWorld.deployed().then(instance => contract = instance)\n        > contract.sayHello.call()\n        'Hello World'\n        > contract.echo.call(\"I love U\")\n        'I love U'\n\n  note: Solidity 中定義好型別後，並不能隨時更改之後要儲存的型別\n */",
  "sourcePath": "/Users/white/Documents/Labs/smart_contract/hello_my_first_smart_contract/contracts/HelloWorld.sol",
  "compiler": {
    "name": "solc",
    "version": "0.4.24+commit.e67f0147.Emscripten.clang"
  },
  "schemaVersion": "3.4.8",
  "updatedAt": "2022-07-17T08:20:11.993Z",
  "networkType": "ethereum",
  "devdoc": {
    "methods": {}
  },
  "userdoc": {
    "methods": {}
  }
}