{
  "contractName": "SimpleToken",
  "abi": [
    {
      "inputs": [],
      "payable": false,
      "stateMutability": "nonpayable",
      "type": "constructor"
    },
    {
      "constant": false,
      "inputs": [
        {
          "name": "_to",
          "type": "address"
        },
        {
          "name": "_amount",
          "type": "uint256"
        }
      ],
      "name": "transfer",
      "outputs": [],
      "payable": false,
      "stateMutability": "nonpayable",
      "type": "function"
    },
    {
      "constant": false,
      "inputs": [
        {
          "name": "_owner",
          "type": "address"
        }
      ],
      "name": "balanceOf",
      "outputs": [
        {
          "name": "",
          "type": "uint256"
        }
      ],
      "payable": false,
      "stateMutability": "nonpayable",
      "type": "function"
    }
  ],
  "bytecode": "0x608060405261271060005534801561001657600080fd5b50600054600160003373ffffffffffffffffffffffffffffffffffffffff1673ffffffffffffffffffffffffffffffffffffffff168152602001908152602001600020819055506102558061006c6000396000f30060806040526004361061004c576000357c0100000000000000000000000000000000000000000000000000000000900463ffffffff16806370a0823114610051578063a9059cbb146100a8575b600080fd5b34801561005d57600080fd5b50610092600480360381019080803573ffffffffffffffffffffffffffffffffffffffff1690602001909291905050506100f5565b6040518082815260200191505060405180910390f35b3480156100b457600080fd5b506100f3600480360381019080803573ffffffffffffffffffffffffffffffffffffffff1690602001909291908035906020019092919050505061013e565b005b6000600160008373ffffffffffffffffffffffffffffffffffffffff1673ffffffffffffffffffffffffffffffffffffffff168152602001908152602001600020549050919050565b80600160003373ffffffffffffffffffffffffffffffffffffffff1673ffffffffffffffffffffffffffffffffffffffff1681526020019081526020016000205411151561018b57600080fd5b80600160003373ffffffffffffffffffffffffffffffffffffffff1673ffffffffffffffffffffffffffffffffffffffff1681526020019081526020016000206000828254039250508190555080600160008473ffffffffffffffffffffffffffffffffffffffff1673ffffffffffffffffffffffffffffffffffffffff1681526020019081526020016000206000828254019250508190555050505600a165627a7a72305820f5f052b9aaf68123455bbbc7863329af25a3040265481e5c2edfd27bc6bb57f70029",
  "source": "// SPDX-License-Identifier: MIT\npragma solidity >=0.4.22 <0.9.0;\n\ncontract SimpleToken {\n  // 初始代幣數目, uint 正整數的型別\n  uint INITIAL_SUPPLY = 10000; \n\n  // 定義一個可以儲存鍵值對(key-value pair)的資料\n  mapping(address => uint) balances; \n\n  constructor() public {\n    // 將所有的初始代幣INITIAL_SUPPLY都指定給msg.sender帳戶\n    balances[msg.sender] = INITIAL_SUPPLY;\n  }\n\n  // 轉帳\n  // transfer token for a specified address\n  function transfer(address _to, uint _amount) public {\n    // 斷帳戶中是否還有足夠轉出的餘額，若存款小於想轉出的數目，就丟出錯誤。\n    require(balances[msg.sender] > _amount);\n    balances[msg.sender] -= _amount;\n    balances[_to] += _amount;\n  }\n\n  // 查詢任一帳戶的餘額\n  // Gets the balance of the specified address\n  function balanceOf(address _owner) public returns (uint) {\n    return balances[_owner];\n  }\n}\n\n/* \n  - truffle console // 測試合約內容\n    - 拿到目前用戶 \n      - truffle(development)> web3.eth.getAccounts()\n      [\n        '0x7E541461B5ec6086B449B368D1cDa26cE891e043',\n        '0x4DA9a720f065ce9FD95be896A0A437017934F4AD',\n        '0x125d9Aa03a6e68c302980d695A46Cb2162c64371',\n        '0x740202c9184e43e6Df75AEFa5ECe0E9C56143db5',\n        '0xe37D9e82c481bFb283C778D7E01576F90400B207',\n        '0x6F5493e8f636CD3e5bEc6bC2ADbD57F44Ff6752B',\n        '0x909D7731413E34f149d64cAd03ed57713b5848d1',\n        '0xc05817E0B9a212046017543d547df99Ec2E0870c',\n        '0xe6Eb3f8688320ccF6ba20Ab441FC16Fcf54F4ec9',\n        '0xE55E19e2D49B04164D603F413D76B8a0EBf818c1'\n      ]\n    - 隨便帶一個用戶測試\n      contract.balanceOf.call('0x7E541461B5ec6086B449B368D1cDa26cE891e043')\n      BN {\n        negative: 0,\n        words: [ 10000, <1 empty item> ],\n        length: 1,\n        red: null\n      }\n */\n\n",
  "sourcePath": "/Users/white/Documents/Labs/smart_contract/hello_my_first_smart_contract/contracts/SimpleToken.sol",
  "compiler": {
    "name": "solc",
    "version": "0.4.24+commit.e67f0147.Emscripten.clang"
  },
  "schemaVersion": "3.4.8",
  "updatedAt": "2022-07-17T08:20:12.260Z",
  "networkType": "ethereum",
  "devdoc": {
    "methods": {}
  },
  "userdoc": {
    "methods": {}
  }
}