{
  "contractName": "SimpleToken",
  "abi": [
    {
      "inputs": [],
      "stateMutability": "nonpayable",
      "type": "constructor"
    },
    {
      "inputs": [
        {
          "internalType": "address",
          "name": "_to",
          "type": "address"
        },
        {
          "internalType": "uint256",
          "name": "_amount",
          "type": "uint256"
        }
      ],
      "name": "transfer",
      "outputs": [],
      "stateMutability": "nonpayable",
      "type": "function"
    },
    {
      "inputs": [
        {
          "internalType": "address",
          "name": "_owner",
          "type": "address"
        }
      ],
      "name": "balanceOf",
      "outputs": [
        {
          "internalType": "uint256",
          "name": "",
          "type": "uint256"
        }
      ],
      "stateMutability": "nonpayable",
      "type": "function"
    }
  ],
  "bytecode": "0x608060405261271060005534801561001657600080fd5b50600054600160003373ffffffffffffffffffffffffffffffffffffffff1673ffffffffffffffffffffffffffffffffffffffff168152602001908152602001600020819055506103ea8061006c6000396000f3fe608060405234801561001057600080fd5b50600436106100365760003560e01c806370a082311461003b578063a9059cbb1461006b575b600080fd5b6100556004803603810190610050919061022e565b610087565b6040516100629190610274565b60405180910390f35b610085600480360381019061008091906102bb565b6100d0565b005b6000600160008373ffffffffffffffffffffffffffffffffffffffff1673ffffffffffffffffffffffffffffffffffffffff168152602001908152602001600020549050919050565b80600160003373ffffffffffffffffffffffffffffffffffffffff1673ffffffffffffffffffffffffffffffffffffffff168152602001908152602001600020541161011b57600080fd5b80600160003373ffffffffffffffffffffffffffffffffffffffff1673ffffffffffffffffffffffffffffffffffffffff168152602001908152602001600020600082825461016a919061032a565b9250508190555080600160008473ffffffffffffffffffffffffffffffffffffffff1673ffffffffffffffffffffffffffffffffffffffff16815260200190815260200160002060008282546101c0919061035e565b925050819055505050565b600080fd5b600073ffffffffffffffffffffffffffffffffffffffff82169050919050565b60006101fb826101d0565b9050919050565b61020b816101f0565b811461021657600080fd5b50565b60008135905061022881610202565b92915050565b600060208284031215610244576102436101cb565b5b600061025284828501610219565b91505092915050565b6000819050919050565b61026e8161025b565b82525050565b60006020820190506102896000830184610265565b92915050565b6102988161025b565b81146102a357600080fd5b50565b6000813590506102b58161028f565b92915050565b600080604083850312156102d2576102d16101cb565b5b60006102e085828601610219565b92505060206102f1858286016102a6565b9150509250929050565b7f4e487b7100000000000000000000000000000000000000000000000000000000600052601160045260246000fd5b60006103358261025b565b91506103408361025b565b925082821015610353576103526102fb565b5b828203905092915050565b60006103698261025b565b91506103748361025b565b9250827fffffffffffffffffffffffffffffffffffffffffffffffffffffffffffffffff038211156103a9576103a86102fb565b5b82820190509291505056fea2646970667358221220be553c00ab13e44cefdcceb2baf01d4705d5e56ab835ec859bffcb9121c2aa3264736f6c634300080f0033",
  "immutableReferences": {},
  "source": "// SPDX-License-Identifier: MIT\npragma solidity >=0.4.22 <0.9.0;\n\ncontract SimpleToken {\n  // , uint \n  uint INITIAL_SUPPLY = 10000; \n\n  // (key-value pair)\n  mapping(address => uint) balances; \n\n  constructor() public {\n    // INITIAL_SUPPLYmsg.sender\n    balances[msg.sender] = INITIAL_SUPPLY;\n  }\n\n  // \n  // transfer token for a specified address\n  function transfer(address _to, uint _amount) public {\n    // \n    require(balances[msg.sender] > _amount);\n    balances[msg.sender] -= _amount;\n    balances[_to] += _amount;\n  }\n\n  // \n  // Gets the balance of the specified address\n  function balanceOf(address _owner) public returns (uint) {\n    return balances[_owner];\n  }\n}\n",
  "sourcePath": "/Users/white/Documents/Labs/smart_contract/hello_my_first_smart_contract/contracts/SimpleToken.sol",
  "compiler": {
    "name": "solc",
    "version": "0.8.15+commit.e14f2714.Emscripten.clang"
  },
  "schemaVersion": "3.4.8",
  "updatedAt": "2022-07-17T07:30:12.210Z",
  "networkType": "ethereum",
  "devdoc": {
    "kind": "dev",
    "methods": {},
    "version": 1
  },
  "userdoc": {
    "kind": "user",
    "methods": {},
    "version": 1
  }
}